{
  "transactions": [
    {
      "hash": "0x1b41757f32b88b3a386dee08cde4ed20525947046577732ad88f30ecab2e1e26",
      "transactionType": "CALL",
      "contractName": "CoinFlip",
      "contractAddress": "0x44e0793DCEe07219e24E8B1cF24b61fcD471C0b1",
      "function": "flip(bool):(bool)",
      "arguments": [
        "false"
      ],
      "transaction": {
        "type": "0x02",
        "from": "0xfd7059cf48ef2417a1b6eeac9a77b6ca2d94a34e",
        "to": "0x44e0793dcee07219e24e8b1cf24b61fcd471c0b1",
        "gas": "0x9ceb",
        "value": "0x0",
        "data": "0x1d263f670000000000000000000000000000000000000000000000000000000000000000",
        "nonce": "0x3a6",
        "accessList": []
      },
      "additionalContracts": [],
      "isFixedGasLimit": false
    }
  ],
  "receipts": [],
  "libraries": [],
  "pending": [
    "0x1b41757f32b88b3a386dee08cde4ed20525947046577732ad88f30ecab2e1e26"
  ],
  "returns": {},
  "timestamp": 1694809433,
  "chain": 11155111,
  "multi": false,
  "commit": "680aed5"
}