{
  "transactions": [
    {
      "hash": "0xdfda6f1e25b08506421a81d43de20dfe22537a95b0c0c6eddb8f21e701e17e50",
      "transactionType": "CALL",
      "contractName": "CoinFlip",
      "contractAddress": "0x44e0793DCEe07219e24E8B1cF24b61fcD471C0b1",
      "function": "flip(bool):(bool)",
      "arguments": [
        "false"
      ],
      "transaction": {
        "type": "0x02",
        "from": "0xfd7059cf48ef2417a1b6eeac9a77b6ca2d94a34e",
        "to": "0x44e0793dcee07219e24e8b1cf24b61fcd471c0b1",
        "gas": "0xc21d",
        "value": "0x0",
        "data": "0x1d263f670000000000000000000000000000000000000000000000000000000000000000",
        "nonce": "0x3a8",
        "accessList": []
      },
      "additionalContracts": [],
      "isFixedGasLimit": false
    }
  ],
  "receipts": [
    {
      "transactionHash": "0xdfda6f1e25b08506421a81d43de20dfe22537a95b0c0c6eddb8f21e701e17e50",
      "transactionIndex": "0x5",
      "blockHash": "0x8bd0415f0ee486b7a1a294aa41dc7b7f3cea233c4605a33f030b6b9b353516dd",
      "blockNumber": "0x418bf8",
      "from": "0xfD7059Cf48Ef2417a1b6Eeac9A77b6CA2D94A34e",
      "to": "0x44e0793DCEe07219e24E8B1cF24b61fcD471C0b1",
      "cumulativeGasUsed": "0xba904",
      "gasUsed": "0x719c",
      "contractAddress": null,
      "logs": [],
      "status": "0x1",
      "logsBloom": "0x00000000000000000000000000000000000000000000000000000000000000000000000000000000000000000000000000000000000000000000000000000000000000000000000000000000000000000000000000000000000000000000000000000000000000000000000000000000000000000000000000000000000000000000000000000000000000000000000000000000000000000000000000000000000000000000000000000000000000000000000000000000000000000000000000000000000000000000000000000000000000000000000000000000000000000000000000000000000000000000000000000000000000000000000000000000",
      "type": "0x2",
      "effectiveGasPrice": "0xb2d05e17"
    }
  ],
  "libraries": [],
  "pending": [],
  "returns": {},
  "timestamp": 1694809657,
  "chain": 11155111,
  "multi": false,
  "commit": "680aed5"
}