{
  "transactions": [
    {
      "hash": "0x5af40de39d57d5095c52c199a3e83c0e5388a8bd0d7763acf57d28dc1fcba9d4",
      "transactionType": "CALL",
      "contractName": "CoinFlip",
      "contractAddress": "0x44e0793DCEe07219e24E8B1cF24b61fcD471C0b1",
      "function": "flip(bool):(bool)",
      "arguments": [
        "true"
      ],
      "transaction": {
        "type": "0x02",
        "from": "0xfd7059cf48ef2417a1b6eeac9a77b6ca2d94a34e",
        "to": "0x44e0793dcee07219e24e8b1cf24b61fcd471c0b1",
        "gas": "0xb757",
        "value": "0x0",
        "data": "0x1d263f670000000000000000000000000000000000000000000000000000000000000001",
        "nonce": "0x3ad",
        "accessList": []
      },
      "additionalContracts": [],
      "isFixedGasLimit": false
    }
  ],
  "receipts": [
    {
      "transactionHash": "0x5af40de39d57d5095c52c199a3e83c0e5388a8bd0d7763acf57d28dc1fcba9d4",
      "transactionIndex": "0x3",
      "blockHash": "0x68e362f9ed30220612b61e0b55a63a65cfb823f2363457562c1e5d250e86a3a5",
      "blockNumber": "0x418c10",
      "from": "0xfD7059Cf48Ef2417a1b6Eeac9A77b6CA2D94A34e",
      "to": "0x44e0793DCEe07219e24E8B1cF24b61fcD471C0b1",
      "cumulativeGasUsed": "0x8758a",
      "gasUsed": "0x71b2",
      "contractAddress": null,
      "logs": [],
      "status": "0x1",
      "logsBloom": "0x00000000000000000000000000000000000000000000000000000000000000000000000000000000000000000000000000000000000000000000000000000000000000000000000000000000000000000000000000000000000000000000000000000000000000000000000000000000000000000000000000000000000000000000000000000000000000000000000000000000000000000000000000000000000000000000000000000000000000000000000000000000000000000000000000000000000000000000000000000000000000000000000000000000000000000000000000000000000000000000000000000000000000000000000000000000",
      "type": "0x2",
      "effectiveGasPrice": "0xb2d05e18"
    }
  ],
  "libraries": [],
  "pending": [],
  "returns": {},
  "timestamp": 1694809962,
  "chain": 11155111,
  "multi": false,
  "commit": "680aed5"
}