{
  "transactions": [
    {
      "hash": "0xcea519c44c010f75d3788f9deadcdf53d581ed5809fc2ace1dcaa160decf1d22",
      "transactionType": "CALL",
      "contractName": "CoinFlip",
      "contractAddress": "0x44e0793DCEe07219e24E8B1cF24b61fcD471C0b1",
      "function": "flip(bool):(bool)",
      "arguments": [
        "false"
      ],
      "transaction": {
        "type": "0x02",
        "from": "0xfd7059cf48ef2417a1b6eeac9a77b6ca2d94a34e",
        "to": "0x44e0793dcee07219e24e8b1cf24b61fcd471c0b1",
        "gas": "0xa7b5",
        "value": "0x0",
        "data": "0x1d263f670000000000000000000000000000000000000000000000000000000000000000",
        "nonce": "0x3b2",
        "accessList": []
      },
      "additionalContracts": [],
      "isFixedGasLimit": false
    }
  ],
  "receipts": [
    {
      "transactionHash": "0xcea519c44c010f75d3788f9deadcdf53d581ed5809fc2ace1dcaa160decf1d22",
      "transactionIndex": "0x0",
      "blockHash": "0xec89fbc45e54818c01af9d06cb2575a8f9a1be074bba3e397055cc54cf4d7b94",
      "blockNumber": "0x418c3d",
      "from": "0xfD7059Cf48Ef2417a1b6Eeac9A77b6CA2D94A34e",
      "to": "0x44e0793DCEe07219e24E8B1cF24b61fcD471C0b1",
      "cumulativeGasUsed": "0x796c",
      "gasUsed": "0x796c",
      "contractAddress": null,
      "logs": [],
      "status": "0x1",
      "logsBloom": "0x00000000000000000000000000000000000000000000000000000000000000000000000000000000000000000000000000000000000000000000000000000000000000000000000000000000000000000000000000000000000000000000000000000000000000000000000000000000000000000000000000000000000000000000000000000000000000000000000000000000000000000000000000000000000000000000000000000000000000000000000000000000000000000000000000000000000000000000000000000000000000000000000000000000000000000000000000000000000000000000000000000000000000000000000000000000",
      "type": "0x2",
      "effectiveGasPrice": "0xb2d05e0c"
    }
  ],
  "libraries": [],
  "pending": [],
  "returns": {},
  "timestamp": 1694810548,
  "chain": 11155111,
  "multi": false,
  "commit": "680aed5"
}