{
  "transactions": [
    {
      "hash": "0x267f5c40f42db9f84894d2a0c8ad4ee7d597366bef9d22e10acc6068fb1a201f",
      "transactionType": "CALL",
      "contractName": "CoinFlip",
      "contractAddress": "0x44e0793DCEe07219e24E8B1cF24b61fcD471C0b1",
      "function": "flip(bool):(bool)",
      "arguments": [
        "true"
      ],
      "transaction": {
        "type": "0x02",
        "from": "0xfd7059cf48ef2417a1b6eeac9a77b6ca2d94a34e",
        "to": "0x44e0793dcee07219e24e8b1cf24b61fcd471c0b1",
        "gas": "0xb1b4",
        "value": "0x0",
        "data": "0x1d263f670000000000000000000000000000000000000000000000000000000000000001",
        "nonce": "0x3b0",
        "accessList": []
      },
      "additionalContracts": [],
      "isFixedGasLimit": false
    }
  ],
  "receipts": [],
  "libraries": [],
  "pending": [],
  "returns": {},
  "timestamp": 1694810441,
  "chain": 11155111,
  "multi": false,
  "commit": "680aed5"
}