{
  "transactions": [
    {
      "hash": "0x934652ab90c39c7f9a9445013bb17fd2a303c1ef9d2546b8de940f98a76e2a77",
      "transactionType": "CALL",
      "contractName": "CoinFlip",
      "contractAddress": "0x44e0793DCEe07219e24E8B1cF24b61fcD471C0b1",
      "function": "flip(bool):(bool)",
      "arguments": [
        "true"
      ],
      "transaction": {
        "type": "0x02",
        "from": "0xfd7059cf48ef2417a1b6eeac9a77b6ca2d94a34e",
        "to": "0x44e0793dcee07219e24e8b1cf24b61fcd471c0b1",
        "gas": "0x123d1",
        "value": "0x0",
        "data": "0x1d263f670000000000000000000000000000000000000000000000000000000000000001",
        "nonce": "0x3b3",
        "accessList": []
      },
      "additionalContracts": [],
      "isFixedGasLimit": false
    }
  ],
  "receipts": [
    {
      "transactionHash": "0x934652ab90c39c7f9a9445013bb17fd2a303c1ef9d2546b8de940f98a76e2a77",
      "transactionIndex": "0x1",
      "blockHash": "0x101142a5267dc7abbcfb8f783f2d727de6bc51f6ff5f2cdd22597873b7cfd416",
      "blockNumber": "0x418c45",
      "from": "0xfD7059Cf48Ef2417a1b6Eeac9A77b6CA2D94A34e",
      "to": "0x44e0793DCEe07219e24E8B1cF24b61fcD471C0b1",
      "cumulativeGasUsed": "0x1a216",
      "gasUsed": "0x7982",
      "contractAddress": null,
      "logs": [],
      "status": "0x1",
      "logsBloom": "0x00000000000000000000000000000000000000000000000000000000000000000000000000000000000000000000000000000000000000000000000000000000000000000000000000000000000000000000000000000000000000000000000000000000000000000000000000000000000000000000000000000000000000000000000000000000000000000000000000000000000000000000000000000000000000000000000000000000000000000000000000000000000000000000000000000000000000000000000000000000000000000000000000000000000000000000000000000000000000000000000000000000000000000000000000000000",
      "type": "0x2",
      "effectiveGasPrice": "0xb2d05e0c"
    }
  ],
  "libraries": [],
  "pending": [],
  "returns": {},
  "timestamp": 1694810668,
  "chain": 11155111,
  "multi": false,
  "commit": "680aed5"
}