{
  "transactions": [
    {
      "hash": "0xc6ea049e1eb0d801fd096da18625860f1380a3482dc4792a099ac362459c4cfd",
      "transactionType": "CALL",
      "contractName": "CoinFlip",
      "contractAddress": "0x44e0793DCEe07219e24E8B1cF24b61fcD471C0b1",
      "function": "flip(bool):(bool)",
      "arguments": [
        "false"
      ],
      "transaction": {
        "type": "0x02",
        "from": "0xfd7059cf48ef2417a1b6eeac9a77b6ca2d94a34e",
        "to": "0x44e0793dcee07219e24e8b1cf24b61fcd471c0b1",
        "gas": "0x11398",
        "value": "0x0",
        "data": "0x1d263f670000000000000000000000000000000000000000000000000000000000000000",
        "nonce": "0x3a7",
        "accessList": []
      },
      "additionalContracts": [],
      "isFixedGasLimit": false
    }
  ],
  "receipts": [
    {
      "transactionHash": "0xc6ea049e1eb0d801fd096da18625860f1380a3482dc4792a099ac362459c4cfd",
      "transactionIndex": "0x2",
      "blockHash": "0x35b480dbad02ac26edc2428568e100a3f71367974616cad686e0939f9c483e99",
      "blockNumber": "0x418bec",
      "from": "0xfD7059Cf48Ef2417a1b6Eeac9A77b6CA2D94A34e",
      "to": "0x44e0793DCEe07219e24E8B1cF24b61fcD471C0b1",
      "cumulativeGasUsed": "0x1d76a1",
      "gasUsed": "0xc787",
      "contractAddress": null,
      "logs": [],
      "status": "0x1",
      "logsBloom": "0x00000000000000000000000000000000000000000000000000000000000000000000000000000000000000000000000000000000000000000000000000000000000000000000000000000000000000000000000000000000000000000000000000000000000000000000000000000000000000000000000000000000000000000000000000000000000000000000000000000000000000000000000000000000000000000000000000000000000000000000000000000000000000000000000000000000000000000000000000000000000000000000000000000000000000000000000000000000000000000000000000000000000000000000000000000000",
      "type": "0x2",
      "effectiveGasPrice": "0xb2d05e0c"
    }
  ],
  "libraries": [],
  "pending": [],
  "returns": {},
  "timestamp": 1694809505,
  "chain": 11155111,
  "multi": false,
  "commit": "680aed5"
}